{
  "_format": "hh-sol-artifact-1",
  "contractName": "Blog",
  "sourceName": "contracts/blogs.sol",
  "abi": [
    {
      "inputs": [],
      "stateMutability": "nonpayable",
      "type": "constructor"
    },
    {
      "anonymous": false,
      "inputs": [
        {
          "indexed": false,
          "internalType": "uint256",
          "name": "id",
          "type": "uint256"
        },
        {
          "indexed": false,
          "internalType": "string",
          "name": "title",
          "type": "string"
        },
        {
          "indexed": false,
          "internalType": "string",
          "name": "description",
          "type": "string"
        },
        {
          "indexed": false,
          "internalType": "string",
          "name": "location",
          "type": "string"
        },
        {
          "indexed": false,
          "internalType": "string",
          "name": "category",
          "type": "string"
        },
        {
          "indexed": false,
          "internalType": "string",
          "name": "coverImageHash",
          "type": "string"
        },
        {
          "indexed": false,
          "internalType": "string",
          "name": "date",
          "type": "string"
        },
        {
          "indexed": false,
          "internalType": "address",
          "name": "author",
          "type": "address"
        }
      ],
      "name": "FeedCreated",
      "type": "event"
    },
    {
      "inputs": [
        {
          "internalType": "string",
          "name": "_title",
          "type": "string"
        },
        {
          "internalType": "string",
          "name": "_description",
          "type": "string"
        },
        {
          "internalType": "string",
          "name": "_location",
          "type": "string"
        },
        {
          "internalType": "string",
          "name": "_category",
          "type": "string"
        },
        {
          "internalType": "string",
          "name": "_coverImageHash",
          "type": "string"
        },
        {
          "internalType": "string",
          "name": "_date",
          "type": "string"
        }
      ],
      "name": "createFeed",
      "outputs": [],
      "stateMutability": "nonpayable",
      "type": "function"
    },
    {
      "inputs": [],
      "name": "getAllFeeds",
      "outputs": [
        {
          "components": [
            {
              "internalType": "uint256",
              "name": "id",
              "type": "uint256"
            },
            {
              "internalType": "string",
              "name": "title",
              "type": "string"
            },
            {
              "internalType": "string",
              "name": "description",
              "type": "string"
            },
            {
              "internalType": "string",
              "name": "location",
              "type": "string"
            },
            {
              "internalType": "string",
              "name": "category",
              "type": "string"
            },
            {
              "internalType": "string",
              "name": "coverImageHash",
              "type": "string"
            },
            {
              "internalType": "string",
              "name": "date",
              "type": "string"
            },
            {
              "internalType": "address",
              "name": "author",
              "type": "address"
            }
          ],
          "internalType": "struct Blog.Feed[]",
          "name": "",
          "type": "tuple[]"
        }
      ],
      "stateMutability": "view",
      "type": "function"
    },
    {
      "inputs": [
        {
          "internalType": "uint256",
          "name": "_id",
          "type": "uint256"
        }
      ],
      "name": "getFeed",
      "outputs": [
        {
          "components": [
            {
              "internalType": "uint256",
              "name": "id",
              "type": "uint256"
            },
            {
              "internalType": "string",
              "name": "title",
              "type": "string"
            },
            {
              "internalType": "string",
              "name": "description",
              "type": "string"
            },
            {
              "internalType": "string",
              "name": "location",
              "type": "string"
            },
            {
              "internalType": "string",
              "name": "category",
              "type": "string"
            },
            {
              "internalType": "string",
              "name": "coverImageHash",
              "type": "string"
            },
            {
              "internalType": "string",
              "name": "date",
              "type": "string"
            },
            {
              "internalType": "address",
              "name": "author",
              "type": "address"
            }
          ],
          "internalType": "struct Blog.Feed",
          "name": "",
          "type": "tuple"
        }
      ],
      "stateMutability": "view",
      "type": "function"
    },
    {
      "inputs": [],
      "name": "getTotalFeeds",
      "outputs": [
        {
          "internalType": "uint256",
          "name": "",
          "type": "uint256"
        }
      ],
      "stateMutability": "view",
      "type": "function"
    }
  ],
  "bytecode": "0x60806040523480156200001157600080fd5b506200005d6040518060400160405280600e81526020017f426c6f6773206465706c6f7965640000000000000000000000000000000000008152506200006360201b62000c001760201c565b620001f7565b62000103816040516024016200007a919062000170565b6040516020818303038152906040527f41304fac000000000000000000000000000000000000000000000000000000007bffffffffffffffffffffffffffffffffffffffffffffffffffffffff19166020820180517bffffffffffffffffffffffffffffffffffffffffffffffffffffffff83818316178352505050506200010660201b60201c565b50565b60008151905060006a636f6e736f6c652e6c6f679050602083016000808483855afa5050505050565b60006200013c8262000194565b6200014881856200019f565b93506200015a818560208601620001b0565b6200016581620001e6565b840191505092915050565b600060208201905081810360008301526200018c81846200012f565b905092915050565b600081519050919050565b600082825260208201905092915050565b60005b83811015620001d0578082015181840152602081019050620001b3565b83811115620001e0576000848401525b50505050565b6000601f19601f8301169050919050565b61172e80620002076000396000f3fe608060405234801561001057600080fd5b506004361061004c5760003560e01c8063128767981461005157806377641b551461006f5780639f59e5931461008d578063ecb76d90146100a9575b600080fd5b6100596100d9565b6040516100669190611334565b60405180910390f35b610077610505565b604051610084919061139a565b60405180910390f35b6100a760048036038101906100a29190610efa565b61050e565b005b6100c360048036038101906100be9190611013565b6107d1565b6040516100d09190611378565b60405180910390f35b60606002805480602002602001604051908101604052809291908181526020016000905b828210156104fc5783829060005260206000209060080201604051806101000160405290816000820154815260200160018201805461013b90611597565b80601f016020809104026020016040519081016040528092919081815260200182805461016790611597565b80156101b45780601f10610189576101008083540402835291602001916101b4565b820191906000526020600020905b81548152906001019060200180831161019757829003601f168201915b505050505081526020016002820180546101cd90611597565b80601f01602080910402602001604051908101604052809291908181526020018280546101f990611597565b80156102465780601f1061021b57610100808354040283529160200191610246565b820191906000526020600020905b81548152906001019060200180831161022957829003601f168201915b5050505050815260200160038201805461025f90611597565b80601f016020809104026020016040519081016040528092919081815260200182805461028b90611597565b80156102d85780601f106102ad576101008083540402835291602001916102d8565b820191906000526020600020905b8154815290600101906020018083116102bb57829003601f168201915b505050505081526020016004820180546102f190611597565b80601f016020809104026020016040519081016040528092919081815260200182805461031d90611597565b801561036a5780601f1061033f5761010080835404028352916020019161036a565b820191906000526020600020905b81548152906001019060200180831161034d57829003601f168201915b5050505050815260200160058201805461038390611597565b80601f01602080910402602001604051908101604052809291908181526020018280546103af90611597565b80156103fc5780601f106103d1576101008083540402835291602001916103fc565b820191906000526020600020905b8154815290600101906020018083116103df57829003601f168201915b5050505050815260200160068201805461041590611597565b80601f016020809104026020016040519081016040528092919081815260200182805461044190611597565b801561048e5780601f106104635761010080835404028352916020019161048e565b820191906000526020600020905b81548152906001019060200180831161047157829003601f168201915b505050505081526020016007820160009054906101000a900473ffffffffffffffffffffffffffffffffffffffff1673ffffffffffffffffffffffffffffffffffffffff1673ffffffffffffffffffffffffffffffffffffffff1681525050815260200190600101906100fd565b50505050905090565b60008054905090565b600082511161051c57600080fd5b600086511161052a57600080fd5b600085511161053857600080fd5b600084511161054657600080fd5b600083511161055457600080fd5b600073ffffffffffffffffffffffffffffffffffffffff163373ffffffffffffffffffffffffffffffffffffffff16141561058e57600080fd5b6000808154809291906105a0906115fa565b91905055506105af6001610c99565b6105ed6040518060400160405280601081526020017f496e20636f6e7472716374206e6f772000000000000000000000000000000000815250610c00565b6105f633610caf565b600260405180610100016040528061060e6001610d48565b81526020018881526020018781526020018681526020018581526020018481526020018381526020013373ffffffffffffffffffffffffffffffffffffffff1681525090806001815401808255809150506001900390600052602060002090600802016000909190919091506000820151816000015560208201518160010190805190602001906106a0929190610d7f565b5060408201518160020190805190602001906106bd929190610d7f565b5060608201518160030190805190602001906106da929190610d7f565b5060808201518160040190805190602001906106f7929190610d7f565b5060a0820151816005019080519060200190610714929190610d7f565b5060c0820151816006019080519060200190610731929190610d7f565b5060e08201518160070160006101000a81548173ffffffffffffffffffffffffffffffffffffffff021916908373ffffffffffffffffffffffffffffffffffffffff16021790555050507f7bf4c46102542cfa33479ac8707f89e1089966f223d6bd0994c33992a94c79406107a66001610d48565b878787878787336040516107c19897969594939291906113b5565b60405180910390a1505050505050565b6107d9610e05565b60028281548110610813577f4e487b7100000000000000000000000000000000000000000000000000000000600052603260045260246000fd5b9060005260206000209060080201604051806101000160405290816000820154815260200160018201805461084790611597565b80601f016020809104026020016040519081016040528092919081815260200182805461087390611597565b80156108c05780601f10610895576101008083540402835291602001916108c0565b820191906000526020600020905b8154815290600101906020018083116108a357829003601f168201915b505050505081526020016002820180546108d990611597565b80601f016020809104026020016040519081016040528092919081815260200182805461090590611597565b80156109525780601f1061092757610100808354040283529160200191610952565b820191906000526020600020905b81548152906001019060200180831161093557829003601f168201915b5050505050815260200160038201805461096b90611597565b80601f016020809104026020016040519081016040528092919081815260200182805461099790611597565b80156109e45780601f106109b9576101008083540402835291602001916109e4565b820191906000526020600020905b8154815290600101906020018083116109c757829003601f168201915b505050505081526020016004820180546109fd90611597565b80601f0160208091040260200160405190810160405280929190818152602001828054610a2990611597565b8015610a765780601f10610a4b57610100808354040283529160200191610a76565b820191906000526020600020905b815481529060010190602001808311610a5957829003601f168201915b50505050508152602001600582018054610a8f90611597565b80601f0160208091040260200160405190810160405280929190818152602001828054610abb90611597565b8015610b085780601f10610add57610100808354040283529160200191610b08565b820191906000526020600020905b815481529060010190602001808311610aeb57829003601f168201915b50505050508152602001600682018054610b2190611597565b80601f0160208091040260200160405190810160405280929190818152602001828054610b4d90611597565b8015610b9a5780601f10610b6f57610100808354040283529160200191610b9a565b820191906000526020600020905b815481529060010190602001808311610b7d57829003601f168201915b505050505081526020016007820160009054906101000a900473ffffffffffffffffffffffffffffffffffffffff1673ffffffffffffffffffffffffffffffffffffffff1673ffffffffffffffffffffffffffffffffffffffff16815250509050919050565b610c9681604051602401610c149190611356565b6040516020818303038152906040527f41304fac000000000000000000000000000000000000000000000000000000007bffffffffffffffffffffffffffffffffffffffffffffffffffffffff19166020820180517bffffffffffffffffffffffffffffffffffffffffffffffffffffffff8381831617835250505050610d56565b50565b6001816000016000828254019250508190555050565b610d4581604051602401610cc39190611319565b6040516020818303038152906040527f2c2ecbc2000000000000000000000000000000000000000000000000000000007bffffffffffffffffffffffffffffffffffffffffffffffffffffffff19166020820180517bffffffffffffffffffffffffffffffffffffffffffffffffffffffff8381831617835250505050610d56565b50565b600081600001549050919050565b60008151905060006a636f6e736f6c652e6c6f679050602083016000808483855afa5050505050565b828054610d8b90611597565b90600052602060002090601f016020900481019282610dad5760008555610df4565b82601f10610dc657805160ff1916838001178555610df4565b82800160010185558215610df4579182015b82811115610df3578251825591602001919060010190610dd8565b5b509050610e019190610e60565b5090565b60405180610100016040528060008152602001606081526020016060815260200160608152602001606081526020016060815260200160608152602001600073ffffffffffffffffffffffffffffffffffffffff1681525090565b5b80821115610e79576000816000905550600101610e61565b5090565b6000610e90610e8b84611482565b61145d565b905082815260208101848484011115610ea857600080fd5b610eb3848285611555565b509392505050565b600082601f830112610ecc57600080fd5b8135610edc848260208601610e7d565b91505092915050565b600081359050610ef4816116e1565b92915050565b60008060008060008060c08789031215610f1357600080fd5b600087013567ffffffffffffffff811115610f2d57600080fd5b610f3989828a01610ebb565b965050602087013567ffffffffffffffff811115610f5657600080fd5b610f6289828a01610ebb565b955050604087013567ffffffffffffffff811115610f7f57600080fd5b610f8b89828a01610ebb565b945050606087013567ffffffffffffffff811115610fa857600080fd5b610fb489828a01610ebb565b935050608087013567ffffffffffffffff811115610fd157600080fd5b610fdd89828a01610ebb565b92505060a087013567ffffffffffffffff811115610ffa57600080fd5b61100689828a01610ebb565b9150509295509295509295565b60006020828403121561102557600080fd5b600061103384828501610ee5565b91505092915050565b60006110488383611155565b905092915050565b61105981611519565b82525050565b61106881611519565b82525050565b6000611079826114c3565b61108381856114e6565b935083602082028501611095856114b3565b8060005b858110156110d157848403895281516110b2858261103c565b94506110bd836114d9565b925060208a01995050600181019050611099565b50829750879550505050505092915050565b60006110ee826114ce565b6110f881856114f7565b9350611108818560208601611564565b611111816116d0565b840191505092915050565b6000611127826114ce565b6111318185611508565b9350611141818560208601611564565b61114a816116d0565b840191505092915050565b60006101008301600083015161116e60008601826112fb565b506020830151848203602086015261118682826110e3565b915050604083015184820360408601526111a082826110e3565b915050606083015184820360608601526111ba82826110e3565b915050608083015184820360808601526111d482826110e3565b91505060a083015184820360a08601526111ee82826110e3565b91505060c083015184820360c086015261120882826110e3565b91505060e083015161121d60e0860182611050565b508091505092915050565b60006101008301600083015161124160008601826112fb565b506020830151848203602086015261125982826110e3565b9150506040830151848203604086015261127382826110e3565b9150506060830151848203606086015261128d82826110e3565b915050608083015184820360808601526112a782826110e3565b91505060a083015184820360a08601526112c182826110e3565b91505060c083015184820360c08601526112db82826110e3565b91505060e08301516112f060e0860182611050565b508091505092915050565b6113048161154b565b82525050565b6113138161154b565b82525050565b600060208201905061132e600083018461105f565b92915050565b6000602082019050818103600083015261134e818461106e565b905092915050565b60006020820190508181036000830152611370818461111c565b905092915050565b600060208201905081810360008301526113928184611228565b905092915050565b60006020820190506113af600083018461130a565b92915050565b6000610100820190506113cb600083018b61130a565b81810360208301526113dd818a61111c565b905081810360408301526113f1818961111c565b90508181036060830152611405818861111c565b90508181036080830152611419818761111c565b905081810360a083015261142d818661111c565b905081810360c0830152611441818561111c565b905061145060e083018461105f565b9998505050505050505050565b6000611467611478565b905061147382826115c9565b919050565b6000604051905090565b600067ffffffffffffffff82111561149d5761149c6116a1565b5b6114a6826116d0565b9050602081019050919050565b6000819050602082019050919050565b600081519050919050565b600081519050919050565b6000602082019050919050565b600082825260208201905092915050565b600082825260208201905092915050565b600082825260208201905092915050565b60006115248261152b565b9050919050565b600073ffffffffffffffffffffffffffffffffffffffff82169050919050565b6000819050919050565b82818337600083830152505050565b60005b83811015611582578082015181840152602081019050611567565b83811115611591576000848401525b50505050565b600060028204905060018216806115af57607f821691505b602082108114156115c3576115c2611672565b5b50919050565b6115d2826116d0565b810181811067ffffffffffffffff821117156115f1576115f06116a1565b5b80604052505050565b60006116058261154b565b91507fffffffffffffffffffffffffffffffffffffffffffffffffffffffffffffffff82141561163857611637611643565b5b600182019050919050565b7f4e487b7100000000000000000000000000000000000000000000000000000000600052601160045260246000fd5b7f4e487b7100000000000000000000000000000000000000000000000000000000600052602260045260246000fd5b7f4e487b7100000000000000000000000000000000000000000000000000000000600052604160045260246000fd5b6000601f19601f8301169050919050565b6116ea8161154b565b81146116f557600080fd5b5056fea2646970667358221220fb140ba562433f69f3b0e340311533f544f52df715ae993027f15e999ba1da3064736f6c63430008040033",
  "linkReferences": {},
  "deployedLinkReferences": {}
}