{
  "_format": "hh-sol-artifact-1",
  "contractName": "Blog",
  "sourceName": "contracts/Blog.sol",
  "abi": [
    {
      "inputs": [
        {
          "internalType": "address",
          "name": "_verifier",
          "type": "address"
        }
      ],
      "stateMutability": "nonpayable",
      "type": "constructor"
    },
    {
      "anonymous": false,
      "inputs": [
        {
          "indexed": false,
          "internalType": "uint256",
          "name": "id",
          "type": "uint256"
        },
        {
          "indexed": false,
          "internalType": "string",
          "name": "title",
          "type": "string"
        },
        {
          "indexed": false,
          "internalType": "string",
          "name": "description",
          "type": "string"
        },
        {
          "indexed": false,
          "internalType": "string",
          "name": "category",
          "type": "string"
        },
        {
          "indexed": false,
          "internalType": "string",
          "name": "coverImageHash",
          "type": "string"
        },
        {
          "indexed": false,
          "internalType": "string",
          "name": "date",
          "type": "string"
        }
      ],
      "name": "FeedCreated",
      "type": "event"
    },
    {
      "anonymous": false,
      "inputs": [
        {
          "indexed": true,
          "internalType": "uint256",
          "name": "groupId",
          "type": "uint256"
        },
        {
          "indexed": false,
          "internalType": "uint8",
          "name": "depth",
          "type": "uint8"
        },
        {
          "indexed": false,
          "internalType": "uint256",
          "name": "zeroValue",
          "type": "uint256"
        }
      ],
      "name": "GroupCreated",
      "type": "event"
    },
    {
      "anonymous": false,
      "inputs": [
        {
          "indexed": true,
          "internalType": "uint256",
          "name": "groupId",
          "type": "uint256"
        },
        {
          "indexed": false,
          "internalType": "uint256",
          "name": "identityCommitment",
          "type": "uint256"
        },
        {
          "indexed": false,
          "internalType": "uint256",
          "name": "root",
          "type": "uint256"
        }
      ],
      "name": "MemberAdded",
      "type": "event"
    },
    {
      "anonymous": false,
      "inputs": [
        {
          "indexed": true,
          "internalType": "uint256",
          "name": "groupId",
          "type": "uint256"
        },
        {
          "indexed": false,
          "internalType": "uint256",
          "name": "identityCommitment",
          "type": "uint256"
        },
        {
          "indexed": false,
          "internalType": "uint256",
          "name": "root",
          "type": "uint256"
        }
      ],
      "name": "MemberRemoved",
      "type": "event"
    },
    {
      "anonymous": false,
      "inputs": [
        {
          "indexed": false,
          "internalType": "uint256",
          "name": "nullifierHash",
          "type": "uint256"
        }
      ],
      "name": "NullifierHashAdded",
      "type": "event"
    },
    {
      "anonymous": false,
      "inputs": [
        {
          "indexed": true,
          "internalType": "address",
          "name": "previousOwner",
          "type": "address"
        },
        {
          "indexed": true,
          "internalType": "address",
          "name": "newOwner",
          "type": "address"
        }
      ],
      "name": "OwnershipTransferred",
      "type": "event"
    },
    {
      "inputs": [
        {
          "internalType": "uint256",
          "name": "commitmentId",
          "type": "uint256"
        }
      ],
      "name": "addMember",
      "outputs": [],
      "stateMutability": "nonpayable",
      "type": "function"
    },
    {
      "inputs": [
        {
          "internalType": "string",
          "name": "_title",
          "type": "string"
        },
        {
          "internalType": "string",
          "name": "_description",
          "type": "string"
        },
        {
          "internalType": "string",
          "name": "_category",
          "type": "string"
        },
        {
          "internalType": "string",
          "name": "_coverImageHash",
          "type": "string"
        },
        {
          "internalType": "string",
          "name": "_date",
          "type": "string"
        },
        {
          "internalType": "bytes32",
          "name": "_signal",
          "type": "bytes32"
        },
        {
          "internalType": "uint256",
          "name": "root",
          "type": "uint256"
        },
        {
          "internalType": "uint256",
          "name": "_nullifierHash",
          "type": "uint256"
        },
        {
          "internalType": "uint256",
          "name": "externalNullifier",
          "type": "uint256"
        },
        {
          "internalType": "uint256[8]",
          "name": "_proof",
          "type": "uint256[8]"
        }
      ],
      "name": "createFeed",
      "outputs": [],
      "stateMutability": "nonpayable",
      "type": "function"
    },
    {
      "inputs": [],
      "name": "getAllFeeds",
      "outputs": [
        {
          "components": [
            {
              "internalType": "uint256",
              "name": "id",
              "type": "uint256"
            },
            {
              "internalType": "string",
              "name": "title",
              "type": "string"
            },
            {
              "internalType": "string",
              "name": "description",
              "type": "string"
            },
            {
              "internalType": "string",
              "name": "category",
              "type": "string"
            },
            {
              "internalType": "string",
              "name": "coverImageHash",
              "type": "string"
            },
            {
              "internalType": "string",
              "name": "date",
              "type": "string"
            }
          ],
          "internalType": "struct Blog.Feed[]",
          "name": "",
          "type": "tuple[]"
        }
      ],
      "stateMutability": "view",
      "type": "function"
    },
    {
      "inputs": [
        {
          "internalType": "uint256",
          "name": "groupId",
          "type": "uint256"
        }
      ],
      "name": "getDepth",
      "outputs": [
        {
          "internalType": "uint8",
          "name": "",
          "type": "uint8"
        }
      ],
      "stateMutability": "view",
      "type": "function"
    },
    {
      "inputs": [
        {
          "internalType": "uint256",
          "name": "_id",
          "type": "uint256"
        }
      ],
      "name": "getFeed",
      "outputs": [
        {
          "components": [
            {
              "internalType": "uint256",
              "name": "id",
              "type": "uint256"
            },
            {
              "internalType": "string",
              "name": "title",
              "type": "string"
            },
            {
              "internalType": "string",
              "name": "description",
              "type": "string"
            },
            {
              "internalType": "string",
              "name": "category",
              "type": "string"
            },
            {
              "internalType": "string",
              "name": "coverImageHash",
              "type": "string"
            },
            {
              "internalType": "string",
              "name": "date",
              "type": "string"
            }
          ],
          "internalType": "struct Blog.Feed",
          "name": "",
          "type": "tuple"
        }
      ],
      "stateMutability": "view",
      "type": "function"
    },
    {
      "inputs": [
        {
          "internalType": "uint256",
          "name": "groupId",
          "type": "uint256"
        }
      ],
      "name": "getNumberOfLeaves",
      "outputs": [
        {
          "internalType": "uint256",
          "name": "",
          "type": "uint256"
        }
      ],
      "stateMutability": "view",
      "type": "function"
    },
    {
      "inputs": [
        {
          "internalType": "uint256",
          "name": "groupId",
          "type": "uint256"
        }
      ],
      "name": "getRoot",
      "outputs": [
        {
          "internalType": "uint256",
          "name": "",
          "type": "uint256"
        }
      ],
      "stateMutability": "view",
      "type": "function"
    },
    {
      "inputs": [],
      "name": "getTotalFeeds",
      "outputs": [
        {
          "internalType": "uint256",
          "name": "",
          "type": "uint256"
        }
      ],
      "stateMutability": "view",
      "type": "function"
    },
    {
      "inputs": [],
      "name": "owner",
      "outputs": [
        {
          "internalType": "address",
          "name": "",
          "type": "address"
        }
      ],
      "stateMutability": "view",
      "type": "function"
    },
    {
      "inputs": [],
      "name": "renounceOwnership",
      "outputs": [],
      "stateMutability": "nonpayable",
      "type": "function"
    },
    {
      "inputs": [
        {
          "internalType": "address",
          "name": "newOwner",
          "type": "address"
        }
      ],
      "name": "transferOwnership",
      "outputs": [],
      "stateMutability": "nonpayable",
      "type": "function"
    },
    {
      "inputs": [],
      "name": "verifier",
      "outputs": [
        {
          "internalType": "contract IVerifier",
          "name": "",
          "type": "address"
        }
      ],
      "stateMutability": "view",
      "type": "function"
    }
  ],
  "bytecode": "0x608060405260006003556014600460006101000a81548160ff021916908360ff1602179055503480156200003257600080fd5b5060405162002bb438038062002bb4833981810160405281019062000058919062000490565b620000786200006c6200013060201b60201c565b6200013860201b60201c565b620000c36040518060400160405280600e81526020017f426c6f6773206465706c6f796564000000000000000000000000000000000000815250620001fe60201b62000d531760201c565b80600860006101000a81548173ffffffffffffffffffffffffffffffffffffffff021916908373ffffffffffffffffffffffffffffffffffffffff16021790555062000129600354600460009054906101000a900460ff166000620002a160201b60201c565b50620007ce565b600033905090565b6000600260009054906101000a900473ffffffffffffffffffffffffffffffffffffffff16905081600260006101000a81548173ffffffffffffffffffffffffffffffffffffffff021916908373ffffffffffffffffffffffffffffffffffffffff1602179055508173ffffffffffffffffffffffffffffffffffffffff168173ffffffffffffffffffffffffffffffffffffffff167f8be0079c531659141344cd1fd0a4f28419497f9722a3daafe3b4186f6b6457e060405160405180910390a35050565b6200029e8160405160240162000215919062000596565b6040516020818303038152906040527f41304fac000000000000000000000000000000000000000000000000000000007bffffffffffffffffffffffffffffffffffffffffffffffffffffffff19166020820180517bffffffffffffffffffffffffffffffffffffffffffffffffffffffff83818316178352505050506200042360201b60201c565b50565b7f30644e72e131a029b85045b68181585d2833e84879b9709143e1f593f0000001831062000306576040517f08c379a0000000000000000000000000000000000000000000000000000000008152600401620002fd90620005dc565b60405180910390fd5b600062000319846200044c60201b60201c565b60ff16146200035f576040517f08c379a00000000000000000000000000000000000000000000000000000000081526004016200035690620005ba565b60405180910390fd5b6001600084815260200190815260200160002073__$4c0484323457fe1a856f46a4759b553fe4$__63b4bdd117909184846040518463ffffffff1660e01b8152600401620003b093929190620005fe565b60006040518083038186803b158015620003c957600080fd5b505af4158015620003de573d6000803e3d6000fd5b50505050827fc3082aa494e9088c2c9f0fb62a0b6bd46e6699acb94cfba35be29b95a93f68c88383604051620004169291906200063b565b60405180910390a2505050565b60008151905060006a636f6e736f6c652e6c6f679050602083016000808483855afa5050505050565b60006001600083815260200190815260200160002060000160009054906101000a900460ff169050919050565b6000815190506200048a81620007b4565b92915050565b600060208284031215620004a357600080fd5b6000620004b38482850162000479565b91505092915050565b6000620004c98262000668565b620004d5818562000673565b9350620004e7818560208601620006cf565b620004f28162000705565b840191505092915050565b60006200050c60258362000673565b9150620005198262000716565b604082019050919050565b60006200053360368362000673565b9150620005408262000765565b604082019050919050565b8082525050565b6200055d81620006b8565b82525050565b6200056e81620006b8565b82525050565b6200057f81620006c2565b82525050565b6200059081620006c2565b82525050565b60006020820190508181036000830152620005b28184620004bc565b905092915050565b60006020820190508181036000830152620005d581620004fd565b9050919050565b60006020820190508181036000830152620005f78162000524565b9050919050565b60006060820190506200061560008301866200054b565b62000624602083018562000585565b62000633604083018462000563565b949350505050565b600060408201905062000652600083018562000574565b62000661602083018462000552565b9392505050565b600081519050919050565b600082825260208201905092915050565b6000620006918262000698565b9050919050565b600073ffffffffffffffffffffffffffffffffffffffff82169050919050565b6000819050919050565b600060ff82169050919050565b60005b83811015620006ef578082015181840152602081019050620006d2565b83811115620006ff576000848401525b50505050565b6000601f19601f8301169050919050565b7f53656d6170686f726547726f7570733a2067726f757020616c7265616479206560008201527f7869737473000000000000000000000000000000000000000000000000000000602082015250565b7f53656d6170686f726547726f7570733a2067726f7570206964206d757374206260008201527f65203c20534e41524b5f5343414c41525f4649454c4400000000000000000000602082015250565b620007bf8162000684565b8114620007cb57600080fd5b50565b6123d680620007de6000396000f3fe608060405234801561001057600080fd5b50600436106100b45760003560e01c806377641b551161007157806377641b55146101675780638da5cb5b146101855780639b24b3b0146101a3578063b9c78c2b146101d3578063ecb76d9014610203578063f2fde38b14610233576100b4565b80631089f5ed146100b957806312876798146100d55780632b7ac3f3146100f3578063707ca89f14610111578063715018a61461012d57806375e618c914610137575b600080fd5b6100d360048036038101906100ce9190611762565b61024f565b005b6100dd61025e565b6040516100ea9190611c96565b60405180910390f35b6100fb6105a1565b6040516101089190611cff565b60405180910390f35b61012b6004803603810190610126919061160f565b6105c7565b005b6101356107ec565b005b610151600480360381019061014c9190611762565b610874565b60405161015e9190611ecf565b60405180910390f35b61016f6108a1565b60405161017c9190611e07565b60405180910390f35b61018d6108ab565b60405161019a9190611c7b565b60405180910390f35b6101bd60048036038101906101b89190611762565b6108d5565b6040516101ca9190611e07565b60405180910390f35b6101ed60048036038101906101e89190611762565b6108f5565b6040516101fa9190611e07565b60405180910390f35b61021d60048036038101906102189190611762565b610915565b60405161022a9190611dbc565b60405180910390f35b61024d600480360381019061024891906115e6565b610c5b565b005b61025b60035482610dec565b50565b60606009805480602002602001604051908101604052809291908181526020016000905b8282101561059857838290600052602060002090600602016040518060c0016040529081600082015481526020016001820180546102bf906120f1565b80601f01602080910402602001604051908101604052809291908181526020018280546102eb906120f1565b80156103385780601f1061030d57610100808354040283529160200191610338565b820191906000526020600020905b81548152906001019060200180831161031b57829003601f168201915b50505050508152602001600282018054610351906120f1565b80601f016020809104026020016040519081016040528092919081815260200182805461037d906120f1565b80156103ca5780601f1061039f576101008083540402835291602001916103ca565b820191906000526020600020905b8154815290600101906020018083116103ad57829003601f168201915b505050505081526020016003820180546103e3906120f1565b80601f016020809104026020016040519081016040528092919081815260200182805461040f906120f1565b801561045c5780601f106104315761010080835404028352916020019161045c565b820191906000526020600020905b81548152906001019060200180831161043f57829003601f168201915b50505050508152602001600482018054610475906120f1565b80601f01602080910402602001604051908101604052809291908181526020018280546104a1906120f1565b80156104ee5780601f106104c3576101008083540402835291602001916104ee565b820191906000526020600020905b8154815290600101906020018083116104d157829003601f168201915b50505050508152602001600582018054610507906120f1565b80601f0160208091040260200160405190810160405280929190818152602001828054610533906120f1565b80156105805780601f1061055557610100808354040283529160200191610580565b820191906000526020600020905b81548152906001019060200180831161056357829003601f168201915b50505050508152505081526020019060010190610282565b50505050905090565b600860009054906101000a900473ffffffffffffffffffffffffffffffffffffffff1681565b60008751116105d557600080fd5b60008a51116105e357600080fd5b60008951116105f157600080fd5b60008851116105ff57600080fd5b61062f8585858585600860009054906101000a900473ffffffffffffffffffffffffffffffffffffffff16610f04565b6005600081548092919061064290612154565b9190505550610651600761125d565b61068f6040518060400160405280601081526020017f496e20636f6e7472716374206e6f772000000000000000000000000000000000815250610d53565b61069833611273565b60096040518060c001604052806106af600761130c565b81526020018c81526020018b81526020018a815260200189815260200188815250908060018154018082558091505060019003906000526020600020906006020160009091909190915060008201518160000155602082015181600101908051906020019061071f929190611448565b50604082015181600201908051906020019061073c929190611448565b506060820151816003019080519060200190610759929190611448565b506080820151816004019080519060200190610776929190611448565b5060a0820151816005019080519060200190610793929190611448565b5050507fb3b483a3046fb299d26d665f1c93e3a1378e05b4166a557028891e03f9ee936d6107c1600761130c565b8b8b8b8b8b6040516107d896959493929190611e22565b60405180910390a150505050505050505050565b6107f461131a565b73ffffffffffffffffffffffffffffffffffffffff166108126108ab565b73ffffffffffffffffffffffffffffffffffffffff1614610868576040517f08c379a000000000000000000000000000000000000000000000000000000000815260040161085f90611d9c565b60405180910390fd5b6108726000611322565b565b60006001600083815260200190815260200160002060000160009054906101000a900460ff169050919050565b6000600554905090565b6000600260009054906101000a900473ffffffffffffffffffffffffffffffffffffffff16905090565b600060016000838152602001908152602001600020600101549050919050565b600060016000838152602001908152602001600020600201549050919050565b61091d6114ce565b60098281548110610957577f4e487b7100000000000000000000000000000000000000000000000000000000600052603260045260246000fd5b90600052602060002090600602016040518060c00160405290816000820154815260200160018201805461098a906120f1565b80601f01602080910402602001604051908101604052809291908181526020018280546109b6906120f1565b8015610a035780601f106109d857610100808354040283529160200191610a03565b820191906000526020600020905b8154815290600101906020018083116109e657829003601f168201915b50505050508152602001600282018054610a1c906120f1565b80601f0160208091040260200160405190810160405280929190818152602001828054610a48906120f1565b8015610a955780601f10610a6a57610100808354040283529160200191610a95565b820191906000526020600020905b815481529060010190602001808311610a7857829003601f168201915b50505050508152602001600382018054610aae906120f1565b80601f0160208091040260200160405190810160405280929190818152602001828054610ada906120f1565b8015610b275780601f10610afc57610100808354040283529160200191610b27565b820191906000526020600020905b815481529060010190602001808311610b0a57829003601f168201915b50505050508152602001600482018054610b40906120f1565b80601f0160208091040260200160405190810160405280929190818152602001828054610b6c906120f1565b8015610bb95780601f10610b8e57610100808354040283529160200191610bb9565b820191906000526020600020905b815481529060010190602001808311610b9c57829003601f168201915b50505050508152602001600582018054610bd2906120f1565b80601f0160208091040260200160405190810160405280929190818152602001828054610bfe906120f1565b8015610c4b5780601f10610c2057610100808354040283529160200191610c4b565b820191906000526020600020905b815481529060010190602001808311610c2e57829003601f168201915b5050505050815250509050919050565b610c6361131a565b73ffffffffffffffffffffffffffffffffffffffff16610c816108ab565b73ffffffffffffffffffffffffffffffffffffffff1614610cd7576040517f08c379a0000000000000000000000000000000000000000000000000000000008152600401610cce90611d9c565b60405180910390fd5b600073ffffffffffffffffffffffffffffffffffffffff168173ffffffffffffffffffffffffffffffffffffffff161415610d47576040517f08c379a0000000000000000000000000000000000000000000000000000000008152600401610d3e90611d5c565b60405180910390fd5b610d5081611322565b50565b610de981604051602401610d679190611d1a565b6040516020818303038152906040527f41304fac000000000000000000000000000000000000000000000000000000007bffffffffffffffffffffffffffffffffffffffffffffffffffffffff19166020820180517bffffffffffffffffffffffffffffffffffffffffffffffffffffffff83818316178352505050506113e8565b50565b6000610df783610874565b60ff161415610e3b576040517f08c379a0000000000000000000000000000000000000000000000000000000008152600401610e3290611d7c565b60405180910390fd5b6001600083815260200190815260200160002073__$4c0484323457fe1a856f46a4759b553fe4$__63168703fa9091836040518363ffffffff1660e01b8152600401610e88929190611dde565b60006040518083038186803b158015610ea057600080fd5b505af4158015610eb4573d6000803e3d6000fd5b505050506000610ec3836108d5565b9050827f03fd27265b7dd1f55558bedc22a58fa3b10afb1be776e614bd5a7ba7b94994068383604051610ef7929190611ea6565b60405180910390a2505050565b60008085815260200190815260200160002060009054906101000a900460ff1615610f64576040517f08c379a0000000000000000000000000000000000000000000000000000000008152600401610f5b90611d3c565b60405180910390fd5b6000610f6f87611411565b90508173ffffffffffffffffffffffffffffffffffffffff16635fe8c13b604051806040016040528086600060088110610fd2577f4e487b7100000000000000000000000000000000000000000000000000000000600052603260045260246000fd5b6020020135815260200186600160088110611016577f4e487b7100000000000000000000000000000000000000000000000000000000600052603260045260246000fd5b6020020135815250604051806040016040528060405180604001604052808960026008811061106e577f4e487b7100000000000000000000000000000000000000000000000000000000600052603260045260246000fd5b60200201358152602001896003600881106110b2577f4e487b7100000000000000000000000000000000000000000000000000000000600052603260045260246000fd5b60200201358152508152602001604051806040016040528089600460088110611104577f4e487b7100000000000000000000000000000000000000000000000000000000600052603260045260246000fd5b6020020135815260200189600560088110611148577f4e487b7100000000000000000000000000000000000000000000000000000000600052603260045260246000fd5b6020020135815250815250604051806040016040528088600660088110611198577f4e487b7100000000000000000000000000000000000000000000000000000000600052603260045260246000fd5b60200201358152602001886007600881106111dc577f4e487b7100000000000000000000000000000000000000000000000000000000600052603260045260246000fd5b602002013581525060405180608001604052808c81526020018b81526020018781526020018a8152506040518563ffffffff1660e01b81526004016112249493929190611cb8565b60006040518083038186803b15801561123c57600080fd5b505afa158015611250573d6000803e3d6000fd5b5050505050505050505050565b6001816000016000828254019250508190555050565b611309816040516024016112879190611c7b565b6040516020818303038152906040527f2c2ecbc2000000000000000000000000000000000000000000000000000000007bffffffffffffffffffffffffffffffffffffffffffffffffffffffff19166020820180517bffffffffffffffffffffffffffffffffffffffffffffffffffffffff83818316178352505050506113e8565b50565b600081600001549050919050565b600033905090565b6000600260009054906101000a900473ffffffffffffffffffffffffffffffffffffffff16905081600260006101000a81548173ffffffffffffffffffffffffffffffffffffffff021916908373ffffffffffffffffffffffffffffffffffffffff1602179055508173ffffffffffffffffffffffffffffffffffffffff168173ffffffffffffffffffffffffffffffffffffffff167f8be0079c531659141344cd1fd0a4f28419497f9722a3daafe3b4186f6b6457e060405160405180910390a35050565b60008151905060006a636f6e736f6c652e6c6f679050602083016000808483855afa5050505050565b60006008826040516020016114269190611c60565b6040516020818303038152906040528051906020012060001c901c9050919050565b828054611454906120f1565b90600052602060002090601f01602090048101928261147657600085556114bd565b82601f1061148f57805160ff19168380011785556114bd565b828001600101855582156114bd579182015b828111156114bc5782518255916020019190600101906114a1565b5b5090506114ca9190611504565b5090565b6040518060c001604052806000815260200160608152602001606081526020016060815260200160608152602001606081525090565b5b8082111561151d576000816000905550600101611505565b5090565b600061153461152f84611f0f565b611eea565b90508281526020810184848401111561154c57600080fd5b6115578482856120af565b509392505050565b60008135905061156e8161235b565b92915050565b60008190508260206008028201111561158c57600080fd5b92915050565b6000813590506115a181612372565b92915050565b600082601f8301126115b857600080fd5b81356115c8848260208601611521565b91505092915050565b6000813590506115e081612389565b92915050565b6000602082840312156115f857600080fd5b60006116068482850161155f565b91505092915050565b6000806000806000806000806000806102208b8d03121561162f57600080fd5b60008b013567ffffffffffffffff81111561164957600080fd5b6116558d828e016115a7565b9a505060208b013567ffffffffffffffff81111561167257600080fd5b61167e8d828e016115a7565b99505060408b013567ffffffffffffffff81111561169b57600080fd5b6116a78d828e016115a7565b98505060608b013567ffffffffffffffff8111156116c457600080fd5b6116d08d828e016115a7565b97505060808b013567ffffffffffffffff8111156116ed57600080fd5b6116f98d828e016115a7565b96505060a061170a8d828e01611592565b95505060c061171b8d828e016115d1565b94505060e061172c8d828e016115d1565b93505061010061173e8d828e016115d1565b9250506101206117508d828e01611574565b9150509295989b9194979a5092959850565b60006020828403121561177457600080fd5b6000611782848285016115d1565b91505092915050565b600061179783836118aa565b60408301905092915050565b60006117af8383611ad3565b905092915050565b60006117c38383611c24565b60208301905092915050565b6117d881612038565b82525050565b6117e781611f6e565b6117f18184611fd9565b92506117fc82611f40565b8060005b8381101561182d578151611814878261178b565b965061181f83611fa5565b925050600181019050611800565b505050505050565b600061184082611f79565b61184a8185611fe4565b93508360208202850161185c85611f4a565b8060005b85811015611898578484038952815161187985826117a3565b945061188483611fb2565b925060208a01995050600181019050611860565b50829750879550505050505092915050565b6118b381611f84565b6118bd8184611ff5565b92506118c882611f5a565b8060005b838110156118f95781516118e087826117b7565b96506118eb83611fbf565b9250506001810190506118cc565b505050505050565b61190a81611f84565b6119148184612000565b925061191f82611f5a565b8060005b8381101561195057815161193787826117b7565b965061194283611fbf565b925050600181019050611923565b505050505050565b61196181611f8f565b61196b818461200b565b925061197682611f64565b8060005b838110156119a757815161198e87826117b7565b965061199983611fcc565b92505060018101905061197a565b505050505050565b6119c06119bb8261204a565b61219d565b82525050565b6119cf8161208b565b82525050565b60006119e082611f9a565b6119ea8185612016565b93506119fa8185602086016120be565b611a0381612234565b840191505092915050565b6000611a1982611f9a565b611a238185612027565b9350611a338185602086016120be565b611a3c81612234565b840191505092915050565b6000611a54603683612027565b9150611a5f82612245565b604082019050919050565b6000611a77602683612027565b9150611a8282612294565b604082019050919050565b6000611a9a602583612027565b9150611aa5826122e3565b604082019050919050565b6000611abd602083612027565b9150611ac882612332565b602082019050919050565b600060c083016000830151611aeb6000860182611c24565b5060208301518482036020860152611b0382826119d5565b91505060408301518482036040860152611b1d82826119d5565b91505060608301518482036060860152611b3782826119d5565b91505060808301518482036080860152611b5182826119d5565b91505060a083015184820360a0860152611b6b82826119d5565b9150508091505092915050565b600060c083016000830151611b906000860182611c24565b5060208301518482036020860152611ba882826119d5565b91505060408301518482036040860152611bc282826119d5565b91505060608301518482036060860152611bdc82826119d5565b91505060808301518482036080860152611bf682826119d5565b91505060a083015184820360a0860152611c1082826119d5565b9150508091505092915050565b8082525050565b611c2d81612074565b82525050565b611c3c81612074565b82525050565b611c4b81612074565b82525050565b611c5a8161207e565b82525050565b6000611c6c82846119af565b60208201915081905092915050565b6000602082019050611c9060008301846117cf565b92915050565b60006020820190508181036000830152611cb08184611835565b905092915050565b600061018082019050611cce6000830187611901565b611cdb60408301866117de565b611ce860c0830185611901565b611cf6610100830184611958565b95945050505050565b6000602082019050611d1460008301846119c6565b92915050565b60006020820190508181036000830152611d348184611a0e565b905092915050565b60006020820190508181036000830152611d5581611a47565b9050919050565b60006020820190508181036000830152611d7581611a6a565b9050919050565b60006020820190508181036000830152611d9581611a8d565b9050919050565b60006020820190508181036000830152611db581611ab0565b9050919050565b60006020820190508181036000830152611dd68184611b78565b905092915050565b6000604082019050611df36000830185611c1d565b611e006020830184611c42565b9392505050565b6000602082019050611e1c6000830184611c33565b92915050565b600060c082019050611e376000830189611c33565b8181036020830152611e498188611a0e565b90508181036040830152611e5d8187611a0e565b90508181036060830152611e718186611a0e565b90508181036080830152611e858185611a0e565b905081810360a0830152611e998184611a0e565b9050979650505050505050565b6000604082019050611ebb6000830185611c33565b611ec86020830184611c33565b9392505050565b6000602082019050611ee46000830184611c51565b92915050565b6000611ef4611f05565b9050611f008282612123565b919050565b6000604051905090565b600067ffffffffffffffff821115611f2a57611f29612205565b5b611f3382612234565b9050602081019050919050565b6000819050919050565b6000819050602082019050919050565b6000819050919050565b6000819050919050565b600060029050919050565b600081519050919050565b600060029050919050565b600060049050919050565b600081519050919050565b6000602082019050919050565b6000602082019050919050565b6000602082019050919050565b6000602082019050919050565b600081905092915050565b600082825260208201905092915050565b600081905092915050565b600081905092915050565b600081905092915050565b600082825260208201905092915050565b600082825260208201905092915050565b600061204382612054565b9050919050565b6000819050919050565b600073ffffffffffffffffffffffffffffffffffffffff82169050919050565b6000819050919050565b600060ff82169050919050565b60006120968261209d565b9050919050565b60006120a882612054565b9050919050565b82818337600083830152505050565b60005b838110156120dc5780820151818401526020810190506120c1565b838111156120eb576000848401525b50505050565b6000600282049050600182168061210957607f821691505b6020821081141561211d5761211c6121d6565b5b50919050565b61212c82612234565b810181811067ffffffffffffffff8211171561214b5761214a612205565b5b80604052505050565b600061215f82612074565b91507fffffffffffffffffffffffffffffffffffffffffffffffffffffffffffffffff821415612192576121916121a7565b5b600182019050919050565b6000819050919050565b7f4e487b7100000000000000000000000000000000000000000000000000000000600052601160045260246000fd5b7f4e487b7100000000000000000000000000000000000000000000000000000000600052602260045260246000fd5b7f4e487b7100000000000000000000000000000000000000000000000000000000600052604160045260246000fd5b6000601f19601f8301169050919050565b7f53656d6170686f7265436f72653a20796f752063616e6e6f742075736520746860008201527f652073616d65206e756c6c696669657220747769636500000000000000000000602082015250565b7f4f776e61626c653a206e6577206f776e657220697320746865207a65726f206160008201527f6464726573730000000000000000000000000000000000000000000000000000602082015250565b7f53656d6170686f726547726f7570733a2067726f757020646f6573206e6f742060008201527f6578697374000000000000000000000000000000000000000000000000000000602082015250565b7f4f776e61626c653a2063616c6c6572206973206e6f7420746865206f776e6572600082015250565b61236481612038565b811461236f57600080fd5b50565b61237b8161204a565b811461238657600080fd5b50565b61239281612074565b811461239d57600080fd5b5056fea26469706673582212200f2929a441c7a24907d7d76c450f1dc6f3ca8b8136cf26a4727c5204742a983564736f6c63430008040033",
  "linkReferences": {
    "@zk-kit/incremental-merkle-tree.sol/contracts/IncrementalBinaryTree.sol": {
      "IncrementalBinaryTree": [
        {
          "length": 20,
          "start": 884
        },
        {
          "length": 20,
          "start": 5678
        }
      ]
    }
  },
  "deployedLinkReferences": {
    "@zk-kit/incremental-merkle-tree.sol/contracts/IncrementalBinaryTree.sol": {
      "IncrementalBinaryTree": [
        {
          "length": 20,
          "start": 3664
        }
      ]
    }
  }
}