{
  "_format": "hh-sol-artifact-1",
  "contractName": "Blog",
  "sourceName": "contracts/Blog.sol",
  "abi": [
    {
      "inputs": [
        {
          "internalType": "address",
          "name": "_verifier",
          "type": "address"
        }
      ],
      "stateMutability": "nonpayable",
      "type": "constructor"
    },
    {
      "anonymous": false,
      "inputs": [
        {
          "indexed": false,
          "internalType": "uint256",
          "name": "id",
          "type": "uint256"
        },
        {
          "indexed": false,
          "internalType": "string",
          "name": "title",
          "type": "string"
        },
        {
          "indexed": false,
          "internalType": "string",
          "name": "description",
          "type": "string"
        },
        {
          "indexed": false,
          "internalType": "string",
          "name": "category",
          "type": "string"
        },
        {
          "indexed": false,
          "internalType": "string",
          "name": "coverImageHash",
          "type": "string"
        },
        {
          "indexed": false,
          "internalType": "string",
          "name": "date",
          "type": "string"
        }
      ],
      "name": "FeedCreated",
      "type": "event"
    },
    {
      "anonymous": false,
      "inputs": [
        {
          "indexed": true,
          "internalType": "uint256",
          "name": "groupId",
          "type": "uint256"
        },
        {
          "indexed": false,
          "internalType": "uint8",
          "name": "depth",
          "type": "uint8"
        },
        {
          "indexed": false,
          "internalType": "uint256",
          "name": "zeroValue",
          "type": "uint256"
        }
      ],
      "name": "GroupCreated",
      "type": "event"
    },
    {
      "anonymous": false,
      "inputs": [
        {
          "indexed": true,
          "internalType": "uint256",
          "name": "groupId",
          "type": "uint256"
        },
        {
          "indexed": false,
          "internalType": "uint256",
          "name": "identityCommitment",
          "type": "uint256"
        },
        {
          "indexed": false,
          "internalType": "uint256",
          "name": "root",
          "type": "uint256"
        }
      ],
      "name": "MemberAdded",
      "type": "event"
    },
    {
      "anonymous": false,
      "inputs": [
        {
          "indexed": true,
          "internalType": "uint256",
          "name": "groupId",
          "type": "uint256"
        },
        {
          "indexed": false,
          "internalType": "uint256",
          "name": "identityCommitment",
          "type": "uint256"
        },
        {
          "indexed": false,
          "internalType": "uint256",
          "name": "root",
          "type": "uint256"
        }
      ],
      "name": "MemberRemoved",
      "type": "event"
    },
    {
      "anonymous": false,
      "inputs": [
        {
          "indexed": false,
          "internalType": "uint256",
          "name": "nullifierHash",
          "type": "uint256"
        }
      ],
      "name": "NullifierHashAdded",
      "type": "event"
    },
    {
      "anonymous": false,
      "inputs": [
        {
          "indexed": true,
          "internalType": "address",
          "name": "previousOwner",
          "type": "address"
        },
        {
          "indexed": true,
          "internalType": "address",
          "name": "newOwner",
          "type": "address"
        }
      ],
      "name": "OwnershipTransferred",
      "type": "event"
    },
    {
      "inputs": [
        {
          "internalType": "uint256",
          "name": "commitmentId",
          "type": "uint256"
        }
      ],
      "name": "addMember",
      "outputs": [],
      "stateMutability": "nonpayable",
      "type": "function"
    },
    {
      "inputs": [
        {
          "internalType": "string",
          "name": "_title",
          "type": "string"
        },
        {
          "internalType": "string",
          "name": "_description",
          "type": "string"
        },
        {
          "internalType": "string",
          "name": "_category",
          "type": "string"
        },
        {
          "internalType": "string",
          "name": "_coverImageHash",
          "type": "string"
        },
        {
          "internalType": "string",
          "name": "_date",
          "type": "string"
        },
        {
          "internalType": "bytes32",
          "name": "_signal",
          "type": "bytes32"
        },
        {
          "internalType": "uint256",
          "name": "root",
          "type": "uint256"
        },
        {
          "internalType": "uint256",
          "name": "_nullifierHash",
          "type": "uint256"
        },
        {
          "internalType": "uint256",
          "name": "externalNullifier",
          "type": "uint256"
        },
        {
          "internalType": "uint256[8]",
          "name": "_proof",
          "type": "uint256[8]"
        }
      ],
      "name": "createFeed",
      "outputs": [],
      "stateMutability": "nonpayable",
      "type": "function"
    },
    {
      "inputs": [],
      "name": "getAllFeeds",
      "outputs": [
        {
          "components": [
            {
              "internalType": "uint256",
              "name": "id",
              "type": "uint256"
            },
            {
              "internalType": "string",
              "name": "title",
              "type": "string"
            },
            {
              "internalType": "string",
              "name": "description",
              "type": "string"
            },
            {
              "internalType": "string",
              "name": "category",
              "type": "string"
            },
            {
              "internalType": "string",
              "name": "coverImageHash",
              "type": "string"
            },
            {
              "internalType": "string",
              "name": "date",
              "type": "string"
            }
          ],
          "internalType": "struct Blog.Feed[]",
          "name": "",
          "type": "tuple[]"
        }
      ],
      "stateMutability": "view",
      "type": "function"
    },
    {
      "inputs": [
        {
          "internalType": "uint256",
          "name": "groupId",
          "type": "uint256"
        }
      ],
      "name": "getDepth",
      "outputs": [
        {
          "internalType": "uint8",
          "name": "",
          "type": "uint8"
        }
      ],
      "stateMutability": "view",
      "type": "function"
    },
    {
      "inputs": [
        {
          "internalType": "uint256",
          "name": "_id",
          "type": "uint256"
        }
      ],
      "name": "getFeed",
      "outputs": [
        {
          "components": [
            {
              "internalType": "uint256",
              "name": "id",
              "type": "uint256"
            },
            {
              "internalType": "string",
              "name": "title",
              "type": "string"
            },
            {
              "internalType": "string",
              "name": "description",
              "type": "string"
            },
            {
              "internalType": "string",
              "name": "category",
              "type": "string"
            },
            {
              "internalType": "string",
              "name": "coverImageHash",
              "type": "string"
            },
            {
              "internalType": "string",
              "name": "date",
              "type": "string"
            }
          ],
          "internalType": "struct Blog.Feed",
          "name": "",
          "type": "tuple"
        }
      ],
      "stateMutability": "view",
      "type": "function"
    },
    {
      "inputs": [],
      "name": "getMembers",
      "outputs": [
        {
          "internalType": "uint256[]",
          "name": "",
          "type": "uint256[]"
        }
      ],
      "stateMutability": "view",
      "type": "function"
    },
    {
      "inputs": [
        {
          "internalType": "uint256",
          "name": "groupId",
          "type": "uint256"
        }
      ],
      "name": "getNumberOfLeaves",
      "outputs": [
        {
          "internalType": "uint256",
          "name": "",
          "type": "uint256"
        }
      ],
      "stateMutability": "view",
      "type": "function"
    },
    {
      "inputs": [
        {
          "internalType": "uint256",
          "name": "groupId",
          "type": "uint256"
        }
      ],
      "name": "getRoot",
      "outputs": [
        {
          "internalType": "uint256",
          "name": "",
          "type": "uint256"
        }
      ],
      "stateMutability": "view",
      "type": "function"
    },
    {
      "inputs": [],
      "name": "getTotalFeeds",
      "outputs": [
        {
          "internalType": "uint256",
          "name": "",
          "type": "uint256"
        }
      ],
      "stateMutability": "view",
      "type": "function"
    },
    {
      "inputs": [],
      "name": "owner",
      "outputs": [
        {
          "internalType": "address",
          "name": "",
          "type": "address"
        }
      ],
      "stateMutability": "view",
      "type": "function"
    },
    {
      "inputs": [],
      "name": "renounceOwnership",
      "outputs": [],
      "stateMutability": "nonpayable",
      "type": "function"
    },
    {
      "inputs": [
        {
          "internalType": "address",
          "name": "newOwner",
          "type": "address"
        }
      ],
      "name": "transferOwnership",
      "outputs": [],
      "stateMutability": "nonpayable",
      "type": "function"
    },
    {
      "inputs": [],
      "name": "verifier",
      "outputs": [
        {
          "internalType": "contract IVerifier",
          "name": "",
          "type": "address"
        }
      ],
      "stateMutability": "view",
      "type": "function"
    }
  ],
  "bytecode": "0x608060405260006003556014600460006101000a81548160ff021916908360ff1602179055503480156200003257600080fd5b5060405162002d2738038062002d27833981810160405281019062000058919062000490565b620000786200006c6200013060201b60201c565b6200013860201b60201c565b620000c36040518060400160405280600e81526020017f426c6f6773206465706c6f796564000000000000000000000000000000000000815250620001fe60201b62000e0d1760201c565b80600860006101000a81548173ffffffffffffffffffffffffffffffffffffffff021916908373ffffffffffffffffffffffffffffffffffffffff16021790555062000129600354600460009054906101000a900460ff166000620002a160201b60201c565b50620007ce565b600033905090565b6000600260009054906101000a900473ffffffffffffffffffffffffffffffffffffffff16905081600260006101000a81548173ffffffffffffffffffffffffffffffffffffffff021916908373ffffffffffffffffffffffffffffffffffffffff1602179055508173ffffffffffffffffffffffffffffffffffffffff168173ffffffffffffffffffffffffffffffffffffffff167f8be0079c531659141344cd1fd0a4f28419497f9722a3daafe3b4186f6b6457e060405160405180910390a35050565b6200029e8160405160240162000215919062000596565b6040516020818303038152906040527f41304fac000000000000000000000000000000000000000000000000000000007bffffffffffffffffffffffffffffffffffffffffffffffffffffffff19166020820180517bffffffffffffffffffffffffffffffffffffffffffffffffffffffff83818316178352505050506200042360201b60201c565b50565b7f30644e72e131a029b85045b68181585d2833e84879b9709143e1f593f0000001831062000306576040517f08c379a0000000000000000000000000000000000000000000000000000000008152600401620002fd90620005dc565b60405180910390fd5b600062000319846200044c60201b60201c565b60ff16146200035f576040517f08c379a00000000000000000000000000000000000000000000000000000000081526004016200035690620005ba565b60405180910390fd5b6001600084815260200190815260200160002073__$4c0484323457fe1a856f46a4759b553fe4$__63b4bdd117909184846040518463ffffffff1660e01b8152600401620003b093929190620005fe565b60006040518083038186803b158015620003c957600080fd5b505af4158015620003de573d6000803e3d6000fd5b50505050827fc3082aa494e9088c2c9f0fb62a0b6bd46e6699acb94cfba35be29b95a93f68c88383604051620004169291906200063b565b60405180910390a2505050565b60008151905060006a636f6e736f6c652e6c6f679050602083016000808483855afa5050505050565b60006001600083815260200190815260200160002060000160009054906101000a900460ff169050919050565b6000815190506200048a81620007b4565b92915050565b600060208284031215620004a357600080fd5b6000620004b38482850162000479565b91505092915050565b6000620004c98262000668565b620004d5818562000673565b9350620004e7818560208601620006cf565b620004f28162000705565b840191505092915050565b60006200050c60258362000673565b9150620005198262000716565b604082019050919050565b60006200053360368362000673565b9150620005408262000765565b604082019050919050565b8082525050565b6200055d81620006b8565b82525050565b6200056e81620006b8565b82525050565b6200057f81620006c2565b82525050565b6200059081620006c2565b82525050565b60006020820190508181036000830152620005b28184620004bc565b905092915050565b60006020820190508181036000830152620005d581620004fd565b9050919050565b60006020820190508181036000830152620005f78162000524565b9050919050565b60006060820190506200061560008301866200054b565b62000624602083018562000585565b62000633604083018462000563565b949350505050565b600060408201905062000652600083018562000574565b62000661602083018462000552565b9392505050565b600081519050919050565b600082825260208201905092915050565b6000620006918262000698565b9050919050565b600073ffffffffffffffffffffffffffffffffffffffff82169050919050565b6000819050919050565b600060ff82169050919050565b60005b83811015620006ef578082015181840152602081019050620006d2565b83811115620006ff576000848401525b50505050565b6000601f19601f8301169050919050565b7f53656d6170686f726547726f7570733a2067726f757020616c7265616479206560008201527f7869737473000000000000000000000000000000000000000000000000000000602082015250565b7f53656d6170686f726547726f7570733a2067726f7570206964206d757374206260008201527f65203c20534e41524b5f5343414c41525f4649454c4400000000000000000000602082015250565b620007bf8162000684565b8114620007cb57600080fd5b50565b61254980620007de6000396000f3fe608060405234801561001057600080fd5b50600436106100cf5760003560e01c806377641b551161008c5780639eab5253116100665780639eab5253146101ee578063b9c78c2b1461020c578063ecb76d901461023c578063f2fde38b1461026c576100cf565b806377641b55146101825780638da5cb5b146101a05780639b24b3b0146101be576100cf565b80631089f5ed146100d457806312876798146100f05780632b7ac3f31461010e578063707ca89f1461012c578063715018a61461014857806375e618c914610152575b600080fd5b6100ee60048036038101906100e9919061181c565b610288565b005b6100f86102c0565b6040516101059190611dae565b60405180910390f35b610116610603565b6040516101239190611e39565b60405180910390f35b610146600480360381019061014191906116c9565b610629565b005b61015061084e565b005b61016c6004803603810190610167919061181c565b6108d6565b6040516101799190612009565b60405180910390f35b61018a610903565b6040516101979190611f41565b60405180910390f35b6101a861090d565b6040516101b59190611d93565b60405180910390f35b6101d860048036038101906101d3919061181c565b610937565b6040516101e59190611f41565b60405180910390f35b6101f6610957565b6040516102039190611e17565b60405180910390f35b6102266004803603810190610221919061181c565b6109af565b6040516102339190611f41565b60405180910390f35b6102566004803603810190610251919061181c565b6109cf565b6040516102639190611ef6565b60405180910390f35b610286600480360381019061028191906116a0565b610d15565b005b61029460035482610ea6565b600781908060018154018082558091505060019003906000526020600020016000909190919091505550565b60606009805480602002602001604051908101604052809291908181526020016000905b828210156105fa57838290600052602060002090600602016040518060c00160405290816000820154815260200160018201805461032190612264565b80601f016020809104026020016040519081016040528092919081815260200182805461034d90612264565b801561039a5780601f1061036f5761010080835404028352916020019161039a565b820191906000526020600020905b81548152906001019060200180831161037d57829003601f168201915b505050505081526020016002820180546103b390612264565b80601f01602080910402602001604051908101604052809291908181526020018280546103df90612264565b801561042c5780601f106104015761010080835404028352916020019161042c565b820191906000526020600020905b81548152906001019060200180831161040f57829003601f168201915b5050505050815260200160038201805461044590612264565b80601f016020809104026020016040519081016040528092919081815260200182805461047190612264565b80156104be5780601f10610493576101008083540402835291602001916104be565b820191906000526020600020905b8154815290600101906020018083116104a157829003601f168201915b505050505081526020016004820180546104d790612264565b80601f016020809104026020016040519081016040528092919081815260200182805461050390612264565b80156105505780601f1061052557610100808354040283529160200191610550565b820191906000526020600020905b81548152906001019060200180831161053357829003601f168201915b5050505050815260200160058201805461056990612264565b80601f016020809104026020016040519081016040528092919081815260200182805461059590612264565b80156105e25780601f106105b7576101008083540402835291602001916105e2565b820191906000526020600020905b8154815290600101906020018083116105c557829003601f168201915b505050505081525050815260200190600101906102e4565b50505050905090565b600860009054906101000a900473ffffffffffffffffffffffffffffffffffffffff1681565b600087511161063757600080fd5b60008a511161064557600080fd5b600089511161065357600080fd5b600088511161066157600080fd5b6106918585858585600860009054906101000a900473ffffffffffffffffffffffffffffffffffffffff16610fbe565b600560008154809291906106a4906122c7565b91905055506106b36006611317565b6106f16040518060400160405280601081526020017f496e20636f6e7472716374206e6f772000000000000000000000000000000000815250610e0d565b6106fa3361132d565b60096040518060c0016040528061071160066113c6565b81526020018c81526020018b81526020018a8152602001898152602001888152509080600181540180825580915050600190039060005260206000209060060201600090919091909150600082015181600001556020820151816001019080519060200190610781929190611502565b50604082015181600201908051906020019061079e929190611502565b5060608201518160030190805190602001906107bb929190611502565b5060808201518160040190805190602001906107d8929190611502565b5060a08201518160050190805190602001906107f5929190611502565b5050507fb3b483a3046fb299d26d665f1c93e3a1378e05b4166a557028891e03f9ee936d61082360066113c6565b8b8b8b8b8b60405161083a96959493929190611f5c565b60405180910390a150505050505050505050565b6108566113d4565b73ffffffffffffffffffffffffffffffffffffffff1661087461090d565b73ffffffffffffffffffffffffffffffffffffffff16146108ca576040517f08c379a00000000000000000000000000000000000000000000000000000000081526004016108c190611ed6565b60405180910390fd5b6108d460006113dc565b565b60006001600083815260200190815260200160002060000160009054906101000a900460ff169050919050565b6000600554905090565b6000600260009054906101000a900473ffffffffffffffffffffffffffffffffffffffff16905090565b600060016000838152602001908152602001600020600101549050919050565b606060078054806020026020016040519081016040528092919081815260200182805480156109a557602002820191906000526020600020905b815481526020019060010190808311610991575b5050505050905090565b600060016000838152602001908152602001600020600201549050919050565b6109d7611588565b60098281548110610a11577f4e487b7100000000000000000000000000000000000000000000000000000000600052603260045260246000fd5b90600052602060002090600602016040518060c001604052908160008201548152602001600182018054610a4490612264565b80601f0160208091040260200160405190810160405280929190818152602001828054610a7090612264565b8015610abd5780601f10610a9257610100808354040283529160200191610abd565b820191906000526020600020905b815481529060010190602001808311610aa057829003601f168201915b50505050508152602001600282018054610ad690612264565b80601f0160208091040260200160405190810160405280929190818152602001828054610b0290612264565b8015610b4f5780601f10610b2457610100808354040283529160200191610b4f565b820191906000526020600020905b815481529060010190602001808311610b3257829003601f168201915b50505050508152602001600382018054610b6890612264565b80601f0160208091040260200160405190810160405280929190818152602001828054610b9490612264565b8015610be15780601f10610bb657610100808354040283529160200191610be1565b820191906000526020600020905b815481529060010190602001808311610bc457829003601f168201915b50505050508152602001600482018054610bfa90612264565b80601f0160208091040260200160405190810160405280929190818152602001828054610c2690612264565b8015610c735780601f10610c4857610100808354040283529160200191610c73565b820191906000526020600020905b815481529060010190602001808311610c5657829003601f168201915b50505050508152602001600582018054610c8c90612264565b80601f0160208091040260200160405190810160405280929190818152602001828054610cb890612264565b8015610d055780601f10610cda57610100808354040283529160200191610d05565b820191906000526020600020905b815481529060010190602001808311610ce857829003601f168201915b5050505050815250509050919050565b610d1d6113d4565b73ffffffffffffffffffffffffffffffffffffffff16610d3b61090d565b73ffffffffffffffffffffffffffffffffffffffff1614610d91576040517f08c379a0000000000000000000000000000000000000000000000000000000008152600401610d8890611ed6565b60405180910390fd5b600073ffffffffffffffffffffffffffffffffffffffff168173ffffffffffffffffffffffffffffffffffffffff161415610e01576040517f08c379a0000000000000000000000000000000000000000000000000000000008152600401610df890611e96565b60405180910390fd5b610e0a816113dc565b50565b610ea381604051602401610e219190611e54565b6040516020818303038152906040527f41304fac000000000000000000000000000000000000000000000000000000007bffffffffffffffffffffffffffffffffffffffffffffffffffffffff19166020820180517bffffffffffffffffffffffffffffffffffffffffffffffffffffffff83818316178352505050506114a2565b50565b6000610eb1836108d6565b60ff161415610ef5576040517f08c379a0000000000000000000000000000000000000000000000000000000008152600401610eec90611eb6565b60405180910390fd5b6001600083815260200190815260200160002073__$4c0484323457fe1a856f46a4759b553fe4$__63168703fa9091836040518363ffffffff1660e01b8152600401610f42929190611f18565b60006040518083038186803b158015610f5a57600080fd5b505af4158015610f6e573d6000803e3d6000fd5b505050506000610f7d83610937565b9050827f03fd27265b7dd1f55558bedc22a58fa3b10afb1be776e614bd5a7ba7b94994068383604051610fb1929190611fe0565b60405180910390a2505050565b60008085815260200190815260200160002060009054906101000a900460ff161561101e576040517f08c379a000000000000000000000000000000000000000000000000000000000815260040161101590611e76565b60405180910390fd5b6000611029876114cb565b90508173ffffffffffffffffffffffffffffffffffffffff16635fe8c13b60405180604001604052808660006008811061108c577f4e487b7100000000000000000000000000000000000000000000000000000000600052603260045260246000fd5b60200201358152602001866001600881106110d0577f4e487b7100000000000000000000000000000000000000000000000000000000600052603260045260246000fd5b60200201358152506040518060400160405280604051806040016040528089600260088110611128577f4e487b7100000000000000000000000000000000000000000000000000000000600052603260045260246000fd5b602002013581526020018960036008811061116c577f4e487b7100000000000000000000000000000000000000000000000000000000600052603260045260246000fd5b602002013581525081526020016040518060400160405280896004600881106111be577f4e487b7100000000000000000000000000000000000000000000000000000000600052603260045260246000fd5b6020020135815260200189600560088110611202577f4e487b7100000000000000000000000000000000000000000000000000000000600052603260045260246000fd5b6020020135815250815250604051806040016040528088600660088110611252577f4e487b7100000000000000000000000000000000000000000000000000000000600052603260045260246000fd5b6020020135815260200188600760088110611296577f4e487b7100000000000000000000000000000000000000000000000000000000600052603260045260246000fd5b602002013581525060405180608001604052808c81526020018b81526020018781526020018a8152506040518563ffffffff1660e01b81526004016112de9493929190611dd0565b60006040518083038186803b1580156112f657600080fd5b505afa15801561130a573d6000803e3d6000fd5b5050505050505050505050565b6001816000016000828254019250508190555050565b6113c3816040516024016113419190611d93565b6040516020818303038152906040527f2c2ecbc2000000000000000000000000000000000000000000000000000000007bffffffffffffffffffffffffffffffffffffffffffffffffffffffff19166020820180517bffffffffffffffffffffffffffffffffffffffffffffffffffffffff83818316178352505050506114a2565b50565b600081600001549050919050565b600033905090565b6000600260009054906101000a900473ffffffffffffffffffffffffffffffffffffffff16905081600260006101000a81548173ffffffffffffffffffffffffffffffffffffffff021916908373ffffffffffffffffffffffffffffffffffffffff1602179055508173ffffffffffffffffffffffffffffffffffffffff168173ffffffffffffffffffffffffffffffffffffffff167f8be0079c531659141344cd1fd0a4f28419497f9722a3daafe3b4186f6b6457e060405160405180910390a35050565b60008151905060006a636f6e736f6c652e6c6f679050602083016000808483855afa5050505050565b60006008826040516020016114e09190611d78565b6040516020818303038152906040528051906020012060001c901c9050919050565b82805461150e90612264565b90600052602060002090601f0160209004810192826115305760008555611577565b82601f1061154957805160ff1916838001178555611577565b82800160010185558215611577579182015b8281111561157657825182559160200191906001019061155b565b5b50905061158491906115be565b5090565b6040518060c001604052806000815260200160608152602001606081526020016060815260200160608152602001606081525090565b5b808211156115d75760008160009055506001016115bf565b5090565b60006115ee6115e984612049565b612024565b90508281526020810184848401111561160657600080fd5b611611848285612222565b509392505050565b600081359050611628816124ce565b92915050565b60008190508260206008028201111561164657600080fd5b92915050565b60008135905061165b816124e5565b92915050565b600082601f83011261167257600080fd5b81356116828482602086016115db565b91505092915050565b60008135905061169a816124fc565b92915050565b6000602082840312156116b257600080fd5b60006116c084828501611619565b91505092915050565b6000806000806000806000806000806102208b8d0312156116e957600080fd5b60008b013567ffffffffffffffff81111561170357600080fd5b61170f8d828e01611661565b9a505060208b013567ffffffffffffffff81111561172c57600080fd5b6117388d828e01611661565b99505060408b013567ffffffffffffffff81111561175557600080fd5b6117618d828e01611661565b98505060608b013567ffffffffffffffff81111561177e57600080fd5b61178a8d828e01611661565b97505060808b013567ffffffffffffffff8111156117a757600080fd5b6117b38d828e01611661565b96505060a06117c48d828e0161164c565b95505060c06117d58d828e0161168b565b94505060e06117e68d828e0161168b565b9350506101006117f88d828e0161168b565b92505061012061180a8d828e0161162e565b9150509295989b9194979a5092959850565b60006020828403121561182e57600080fd5b600061183c8482850161168b565b91505092915050565b60006118518383611964565b60408301905092915050565b60006118698383611beb565b905092915050565b600061187d8383611d3c565b60208301905092915050565b611892816121ab565b82525050565b6118a1816120b8565b6118ab818461213b565b92506118b68261207a565b8060005b838110156118e75781516118ce8782611845565b96506118d9836120fa565b9250506001810190506118ba565b505050505050565b60006118fa826120c3565b6119048185612146565b93508360208202850161191685612084565b8060005b858110156119525784840389528151611933858261185d565b945061193e83612107565b925060208a0199505060018101905061191a565b50829750879550505050505092915050565b61196d816120ce565b6119778184612157565b925061198282612094565b8060005b838110156119b357815161199a8782611871565b96506119a583612114565b925050600181019050611986565b505050505050565b6119c4816120ce565b6119ce8184612162565b92506119d982612094565b8060005b83811015611a0a5781516119f18782611871565b96506119fc83612114565b9250506001810190506119dd565b505050505050565b611a1b816120d9565b611a25818461216d565b9250611a308261209e565b8060005b83811015611a61578151611a488782611871565b9650611a5383612121565b925050600181019050611a34565b505050505050565b6000611a74826120e4565b611a7e8185612178565b9350611a89836120a8565b8060005b83811015611aba578151611aa18882611871565b9750611aac8361212e565b925050600181019050611a8d565b5085935050505092915050565b611ad8611ad3826121bd565b612310565b82525050565b611ae7816121fe565b82525050565b6000611af8826120ef565b611b028185612189565b9350611b12818560208601612231565b611b1b816123a7565b840191505092915050565b6000611b31826120ef565b611b3b818561219a565b9350611b4b818560208601612231565b611b54816123a7565b840191505092915050565b6000611b6c60368361219a565b9150611b77826123b8565b604082019050919050565b6000611b8f60268361219a565b9150611b9a82612407565b604082019050919050565b6000611bb260258361219a565b9150611bbd82612456565b604082019050919050565b6000611bd560208361219a565b9150611be0826124a5565b602082019050919050565b600060c083016000830151611c036000860182611d3c565b5060208301518482036020860152611c1b8282611aed565b91505060408301518482036040860152611c358282611aed565b91505060608301518482036060860152611c4f8282611aed565b91505060808301518482036080860152611c698282611aed565b91505060a083015184820360a0860152611c838282611aed565b9150508091505092915050565b600060c083016000830151611ca86000860182611d3c565b5060208301518482036020860152611cc08282611aed565b91505060408301518482036040860152611cda8282611aed565b91505060608301518482036060860152611cf48282611aed565b91505060808301518482036080860152611d0e8282611aed565b91505060a083015184820360a0860152611d288282611aed565b9150508091505092915050565b8082525050565b611d45816121e7565b82525050565b611d54816121e7565b82525050565b611d63816121e7565b82525050565b611d72816121f1565b82525050565b6000611d848284611ac7565b60208201915081905092915050565b6000602082019050611da86000830184611889565b92915050565b60006020820190508181036000830152611dc881846118ef565b905092915050565b600061018082019050611de660008301876119bb565b611df36040830186611898565b611e0060c08301856119bb565b611e0e610100830184611a12565b95945050505050565b60006020820190508181036000830152611e318184611a69565b905092915050565b6000602082019050611e4e6000830184611ade565b92915050565b60006020820190508181036000830152611e6e8184611b26565b905092915050565b60006020820190508181036000830152611e8f81611b5f565b9050919050565b60006020820190508181036000830152611eaf81611b82565b9050919050565b60006020820190508181036000830152611ecf81611ba5565b9050919050565b60006020820190508181036000830152611eef81611bc8565b9050919050565b60006020820190508181036000830152611f108184611c90565b905092915050565b6000604082019050611f2d6000830185611d35565b611f3a6020830184611d5a565b9392505050565b6000602082019050611f566000830184611d4b565b92915050565b600060c082019050611f716000830189611d4b565b8181036020830152611f838188611b26565b90508181036040830152611f978187611b26565b90508181036060830152611fab8186611b26565b90508181036080830152611fbf8185611b26565b905081810360a0830152611fd38184611b26565b9050979650505050505050565b6000604082019050611ff56000830185611d4b565b6120026020830184611d4b565b9392505050565b600060208201905061201e6000830184611d69565b92915050565b600061202e61203f565b905061203a8282612296565b919050565b6000604051905090565b600067ffffffffffffffff82111561206457612063612378565b5b61206d826123a7565b9050602081019050919050565b6000819050919050565b6000819050602082019050919050565b6000819050919050565b6000819050919050565b6000819050602082019050919050565b600060029050919050565b600081519050919050565b600060029050919050565b600060049050919050565b600081519050919050565b600081519050919050565b6000602082019050919050565b6000602082019050919050565b6000602082019050919050565b6000602082019050919050565b6000602082019050919050565b600081905092915050565b600082825260208201905092915050565b600081905092915050565b600081905092915050565b600081905092915050565b600082825260208201905092915050565b600082825260208201905092915050565b600082825260208201905092915050565b60006121b6826121c7565b9050919050565b6000819050919050565b600073ffffffffffffffffffffffffffffffffffffffff82169050919050565b6000819050919050565b600060ff82169050919050565b600061220982612210565b9050919050565b600061221b826121c7565b9050919050565b82818337600083830152505050565b60005b8381101561224f578082015181840152602081019050612234565b8381111561225e576000848401525b50505050565b6000600282049050600182168061227c57607f821691505b602082108114156122905761228f612349565b5b50919050565b61229f826123a7565b810181811067ffffffffffffffff821117156122be576122bd612378565b5b80604052505050565b60006122d2826121e7565b91507fffffffffffffffffffffffffffffffffffffffffffffffffffffffffffffffff8214156123055761230461231a565b5b600182019050919050565b6000819050919050565b7f4e487b7100000000000000000000000000000000000000000000000000000000600052601160045260246000fd5b7f4e487b7100000000000000000000000000000000000000000000000000000000600052602260045260246000fd5b7f4e487b7100000000000000000000000000000000000000000000000000000000600052604160045260246000fd5b6000601f19601f8301169050919050565b7f53656d6170686f7265436f72653a20796f752063616e6e6f742075736520746860008201527f652073616d65206e756c6c696669657220747769636500000000000000000000602082015250565b7f4f776e61626c653a206e6577206f776e657220697320746865207a65726f206160008201527f6464726573730000000000000000000000000000000000000000000000000000602082015250565b7f53656d6170686f726547726f7570733a2067726f757020646f6573206e6f742060008201527f6578697374000000000000000000000000000000000000000000000000000000602082015250565b7f4f776e61626c653a2063616c6c6572206973206e6f7420746865206f776e6572600082015250565b6124d7816121ab565b81146124e257600080fd5b50565b6124ee816121bd565b81146124f957600080fd5b50565b612505816121e7565b811461251057600080fd5b5056fea2646970667358221220510c77bf124e0ecb7e5b0246c0d8642399b7e1e89e192e3cf152409a05ad8c9a64736f6c63430008040033",
  "linkReferences": {
    "@zk-kit/incremental-merkle-tree.sol/contracts/IncrementalBinaryTree.sol": {
      "IncrementalBinaryTree": [
        {
          "length": 20,
          "start": 884
        },
        {
          "length": 20,
          "start": 5864
        }
      ]
    }
  },
  "deployedLinkReferences": {
    "@zk-kit/incremental-merkle-tree.sol/contracts/IncrementalBinaryTree.sol": {
      "IncrementalBinaryTree": [
        {
          "length": 20,
          "start": 3850
        }
      ]
    }
  }
}